{
	"data": {
		"bytecode": {
			"linkReferences": {},
			"object": "608060405260015f55348015610013575f80fd5b50610398806100215f395ff3fe608060405234801561000f575f80fd5b5060043610610034575f3560e01c8063653721471461003857806375fdc8a914610056575b5f80fd5b610040610072565b60405161004d91906100dc565b60405180910390f35b610070600480360381019061006b9190610280565b610077565b005b5f5481565b5f5b81518110156100c057818181518110610095576100946102c7565b5b60200260200101515f808282546100ac9190610321565b925050819055508080600101915050610079565b5050565b5f819050919050565b6100d6816100c4565b82525050565b5f6020820190506100ef5f8301846100cd565b92915050565b5f604051905090565b5f80fd5b5f80fd5b5f80fd5b5f601f19601f8301169050919050565b7f4e487b71000000000000000000000000000000000000000000000000000000005f52604160045260245ffd5b6101508261010a565b810181811067ffffffffffffffff8211171561016f5761016e61011a565b5b80604052505050565b5f6101816100f5565b905061018d8282610147565b919050565b5f67ffffffffffffffff8211156101ac576101ab61011a565b5b602082029050602081019050919050565b5f80fd5b6101ca816100c4565b81146101d4575f80fd5b50565b5f813590506101e5816101c1565b92915050565b5f6101fd6101f884610192565b610178565b905080838252602082019050602084028301858111156102205761021f6101bd565b5b835b81811015610249578061023588826101d7565b845260208401935050602081019050610222565b5050509392505050565b5f82601f83011261026757610266610106565b5b81356102778482602086016101eb565b91505092915050565b5f60208284031215610295576102946100fe565b5b5f82013567ffffffffffffffff8111156102b2576102b1610102565b5b6102be84828501610253565b91505092915050565b7f4e487b71000000000000000000000000000000000000000000000000000000005f52603260045260245ffd5b7f4e487b71000000000000000000000000000000000000000000000000000000005f52601160045260245ffd5b5f61032b826100c4565b9150610336836100c4565b9250828202610344816100c4565b9150828204841483151761035b5761035a6102f4565b5b509291505056fea26469706673582212205cb4890bf4fc62233c4fcb8b6f9bd151f011e76b8e72b3335aac9c7a1271cdb364736f6c63430008180033",
			"opcodes": "PUSH1 0x80 PUSH1 0x40 MSTORE PUSH1 0x1 PUSH0 SSTORE CALLVALUE DUP1 ISZERO PUSH2 0x13 JUMPI PUSH0 DUP1 REVERT JUMPDEST POP PUSH2 0x398 DUP1 PUSH2 0x21 PUSH0 CODECOPY PUSH0 RETURN INVALID PUSH1 0x80 PUSH1 0x40 MSTORE CALLVALUE DUP1 ISZERO PUSH2 0xF JUMPI PUSH0 DUP1 REVERT JUMPDEST POP PUSH1 0x4 CALLDATASIZE LT PUSH2 0x34 JUMPI PUSH0 CALLDATALOAD PUSH1 0xE0 SHR DUP1 PUSH4 0x65372147 EQ PUSH2 0x38 JUMPI DUP1 PUSH4 0x75FDC8A9 EQ PUSH2 0x56 JUMPI JUMPDEST PUSH0 DUP1 REVERT JUMPDEST PUSH2 0x40 PUSH2 0x72 JUMP JUMPDEST PUSH1 0x40 MLOAD PUSH2 0x4D SWAP2 SWAP1 PUSH2 0xDC JUMP JUMPDEST PUSH1 0x40 MLOAD DUP1 SWAP2 SUB SWAP1 RETURN JUMPDEST PUSH2 0x70 PUSH1 0x4 DUP1 CALLDATASIZE SUB DUP2 ADD SWAP1 PUSH2 0x6B SWAP2 SWAP1 PUSH2 0x280 JUMP JUMPDEST PUSH2 0x77 JUMP JUMPDEST STOP JUMPDEST PUSH0 SLOAD DUP2 JUMP JUMPDEST PUSH0 JUMPDEST DUP2 MLOAD DUP2 LT ISZERO PUSH2 0xC0 JUMPI DUP2 DUP2 DUP2 MLOAD DUP2 LT PUSH2 0x95 JUMPI PUSH2 0x94 PUSH2 0x2C7 JUMP JUMPDEST JUMPDEST PUSH1 0x20 MUL PUSH1 0x20 ADD ADD MLOAD PUSH0 DUP1 DUP3 DUP3 SLOAD PUSH2 0xAC SWAP2 SWAP1 PUSH2 0x321 JUMP JUMPDEST SWAP3 POP POP DUP2 SWAP1 SSTORE POP DUP1 DUP1 PUSH1 0x1 ADD SWAP2 POP POP PUSH2 0x79 JUMP JUMPDEST POP POP JUMP JUMPDEST PUSH0 DUP2 SWAP1 POP SWAP2 SWAP1 POP JUMP JUMPDEST PUSH2 0xD6 DUP2 PUSH2 0xC4 JUMP JUMPDEST DUP3 MSTORE POP POP JUMP JUMPDEST PUSH0 PUSH1 0x20 DUP3 ADD SWAP1 POP PUSH2 0xEF PUSH0 DUP4 ADD DUP5 PUSH2 0xCD JUMP JUMPDEST SWAP3 SWAP2 POP POP JUMP JUMPDEST PUSH0 PUSH1 0x40 MLOAD SWAP1 POP SWAP1 JUMP JUMPDEST PUSH0 DUP1 REVERT JUMPDEST PUSH0 DUP1 REVERT JUMPDEST PUSH0 DUP1 REVERT JUMPDEST PUSH0 PUSH1 0x1F NOT PUSH1 0x1F DUP4 ADD AND SWAP1 POP SWAP2 SWAP1 POP JUMP JUMPDEST PUSH32 0x4E487B7100000000000000000000000000000000000000000000000000000000 PUSH0 MSTORE PUSH1 0x41 PUSH1 0x4 MSTORE PUSH1 0x24 PUSH0 REVERT JUMPDEST PUSH2 0x150 DUP3 PUSH2 0x10A JUMP JUMPDEST DUP2 ADD DUP2 DUP2 LT PUSH8 0xFFFFFFFFFFFFFFFF DUP3 GT OR ISZERO PUSH2 0x16F JUMPI PUSH2 0x16E PUSH2 0x11A JUMP JUMPDEST JUMPDEST DUP1 PUSH1 0x40 MSTORE POP POP POP JUMP JUMPDEST PUSH0 PUSH2 0x181 PUSH2 0xF5 JUMP JUMPDEST SWAP1 POP PUSH2 0x18D DUP3 DUP3 PUSH2 0x147 JUMP JUMPDEST SWAP2 SWAP1 POP JUMP JUMPDEST PUSH0 PUSH8 0xFFFFFFFFFFFFFFFF DUP3 GT ISZERO PUSH2 0x1AC JUMPI PUSH2 0x1AB PUSH2 0x11A JUMP JUMPDEST JUMPDEST PUSH1 0x20 DUP3 MUL SWAP1 POP PUSH1 0x20 DUP2 ADD SWAP1 POP SWAP2 SWAP1 POP JUMP JUMPDEST PUSH0 DUP1 REVERT JUMPDEST PUSH2 0x1CA DUP2 PUSH2 0xC4 JUMP JUMPDEST DUP2 EQ PUSH2 0x1D4 JUMPI PUSH0 DUP1 REVERT JUMPDEST POP JUMP JUMPDEST PUSH0 DUP2 CALLDATALOAD SWAP1 POP PUSH2 0x1E5 DUP2 PUSH2 0x1C1 JUMP JUMPDEST SWAP3 SWAP2 POP POP JUMP JUMPDEST PUSH0 PUSH2 0x1FD PUSH2 0x1F8 DUP5 PUSH2 0x192 JUMP JUMPDEST PUSH2 0x178 JUMP JUMPDEST SWAP1 POP DUP1 DUP4 DUP3 MSTORE PUSH1 0x20 DUP3 ADD SWAP1 POP PUSH1 0x20 DUP5 MUL DUP4 ADD DUP6 DUP2 GT ISZERO PUSH2 0x220 JUMPI PUSH2 0x21F PUSH2 0x1BD JUMP JUMPDEST JUMPDEST DUP4 JUMPDEST DUP2 DUP2 LT ISZERO PUSH2 0x249 JUMPI DUP1 PUSH2 0x235 DUP9 DUP3 PUSH2 0x1D7 JUMP JUMPDEST DUP5 MSTORE PUSH1 0x20 DUP5 ADD SWAP4 POP POP PUSH1 0x20 DUP2 ADD SWAP1 POP PUSH2 0x222 JUMP JUMPDEST POP POP POP SWAP4 SWAP3 POP POP POP JUMP JUMPDEST PUSH0 DUP3 PUSH1 0x1F DUP4 ADD SLT PUSH2 0x267 JUMPI PUSH2 0x266 PUSH2 0x106 JUMP JUMPDEST JUMPDEST DUP2 CALLDATALOAD PUSH2 0x277 DUP5 DUP3 PUSH1 0x20 DUP7 ADD PUSH2 0x1EB JUMP JUMPDEST SWAP2 POP POP SWAP3 SWAP2 POP POP JUMP JUMPDEST PUSH0 PUSH1 0x20 DUP3 DUP5 SUB SLT ISZERO PUSH2 0x295 JUMPI PUSH2 0x294 PUSH2 0xFE JUMP JUMPDEST JUMPDEST PUSH0 DUP3 ADD CALLDATALOAD PUSH8 0xFFFFFFFFFFFFFFFF DUP2 GT ISZERO PUSH2 0x2B2 JUMPI PUSH2 0x2B1 PUSH2 0x102 JUMP JUMPDEST JUMPDEST PUSH2 0x2BE DUP5 DUP3 DUP6 ADD PUSH2 0x253 JUMP JUMPDEST SWAP2 POP POP SWAP3 SWAP2 POP POP JUMP JUMPDEST PUSH32 0x4E487B7100000000000000000000000000000000000000000000000000000000 PUSH0 MSTORE PUSH1 0x32 PUSH1 0x4 MSTORE PUSH1 0x24 PUSH0 REVERT JUMPDEST PUSH32 0x4E487B7100000000000000000000000000000000000000000000000000000000 PUSH0 MSTORE PUSH1 0x11 PUSH1 0x4 MSTORE PUSH1 0x24 PUSH0 REVERT JUMPDEST PUSH0 PUSH2 0x32B DUP3 PUSH2 0xC4 JUMP JUMPDEST SWAP2 POP PUSH2 0x336 DUP4 PUSH2 0xC4 JUMP JUMPDEST SWAP3 POP DUP3 DUP3 MUL PUSH2 0x344 DUP2 PUSH2 0xC4 JUMP JUMPDEST SWAP2 POP DUP3 DUP3 DIV DUP5 EQ DUP4 ISZERO OR PUSH2 0x35B JUMPI PUSH2 0x35A PUSH2 0x2F4 JUMP JUMPDEST JUMPDEST POP SWAP3 SWAP2 POP POP JUMP INVALID LOG2 PUSH5 0x6970667358 0x22 SLT KECCAK256 TLOAD 0xB4 DUP10 SIGNEXTEND DELEGATECALL 0xFC PUSH3 0x233C4F 0xCB DUP12 PUSH16 0x9BD151F011E76B8E72B3335AAC9C7A12 PUSH18 0xCDB364736F6C634300081800330000000000 "
		},
		"gasEstimates": {
			"creation": {
				"codeDepositCost": "184000",
				"executionCost": "22329",
				"totalCost": "206329"
			},
			"external": {
				"result()": "2402",
				"setResult(uint256[])": "infinite"
			}
		},
		"methodIdentifiers": {
			"result()": "65372147",
			"setResult(uint256[])": "75fdc8a9"
		}
	},
	"abi": [
		{
			"inputs": [],
			"name": "result",
			"outputs": [
				{
					"internalType": "uint256",
					"name": "",
					"type": "uint256"
				}
			],
			"stateMutability": "view",
			"type": "function"
		},
		{
			"inputs": [
				{
					"internalType": "uint256[]",
					"name": "data",
					"type": "uint256[]"
				}
			],
			"name": "setResult",
			"outputs": [],
			"stateMutability": "nonpayable",
			"type": "function"
		}
	]
}