{
	"contracts/Lesson-9.sol": {
		"UnOptimise": {
			"abi": [
				{
					"inputs": [],
					"name": "hash",
					"outputs": [
						{
							"internalType": "bytes32",
							"name": "",
							"type": "bytes32"
						}
					],
					"stateMutability": "view",
					"type": "function"
				}
			],
			"devdoc": {
				"kind": "dev",
				"methods": {},
				"version": 1
			},
			"evm": {
				"assembly": "    /* \"contracts/Lesson-9.sol\":351:630  contract UnOptimise {... */\n  mstore(0x40, 0x80)\n    /* \"contracts/Lesson-9.sol\":597:621  abi.encodePacked(\"test\") */\n  add(0x20, mload(0x40))\n  tag_1\n  swap1\n  tag_2\n  jump\t// in\ntag_1:\n  mload(0x40)\n  0x20\n  dup2\n  dup4\n  sub\n  sub\n  dup2\n  mstore\n  swap1\n  0x40\n  mstore\n    /* \"contracts/Lesson-9.sol\":562:627  keccak256( // gas - 114995... */\n  dup1\n  mload\n  swap1\n  0x20\n  add\n  keccak256\n    /* \"contracts/Lesson-9.sol\":540:627  bytes32 public hash = keccak256( // gas - 114995... */\n  0x00\n  sstore\n    /* \"contracts/Lesson-9.sol\":351:630  contract UnOptimise {... */\n  callvalue\n  dup1\n  iszero\n  tag_3\n  jumpi\n  0x00\n  dup1\n  revert\ntag_3:\n  pop\n  jump(tag_4)\n    /* \"#utility.yul\":7:155   */\ntag_5:\n    /* \"#utility.yul\":109:120   */\n  0x00\n    /* \"#utility.yul\":146:149   */\n  dup2\n    /* \"#utility.yul\":131:149   */\n  swap1\n  pop\n    /* \"#utility.yul\":7:155   */\n  swap3\n  swap2\n  pop\n  pop\n  jump\t// out\n    /* \"#utility.yul\":161:315   */\ntag_6:\n    /* \"#utility.yul\":301:307   */\n  0x7465737400000000000000000000000000000000000000000000000000000000\n    /* \"#utility.yul\":297:298   */\n  0x00\n    /* \"#utility.yul\":289:295   */\n  dup3\n    /* \"#utility.yul\":285:299   */\n  add\n    /* \"#utility.yul\":278:308   */\n  mstore\n    /* \"#utility.yul\":161:315   */\n  pop\n  jump\t// out\n    /* \"#utility.yul\":321:721   */\ntag_7:\n    /* \"#utility.yul\":481:484   */\n  0x00\n    /* \"#utility.yul\":502:586   */\n  tag_12\n    /* \"#utility.yul\":584:585   */\n  0x04\n    /* \"#utility.yul\":579:582   */\n  dup4\n    /* \"#utility.yul\":502:586   */\n  tag_5\n  jump\t// in\ntag_12:\n    /* \"#utility.yul\":495:586   */\n  swap2\n  pop\n    /* \"#utility.yul\":595:688   */\n  tag_13\n    /* \"#utility.yul\":684:687   */\n  dup3\n    /* \"#utility.yul\":595:688   */\n  tag_6\n  jump\t// in\ntag_13:\n    /* \"#utility.yul\":713:714   */\n  0x04\n    /* \"#utility.yul\":708:711   */\n  dup3\n    /* \"#utility.yul\":704:715   */\n  add\n    /* \"#utility.yul\":697:715   */\n  swap1\n  pop\n    /* \"#utility.yul\":321:721   */\n  swap2\n  swap1\n  pop\n  jump\t// out\n    /* \"#utility.yul\":727:1108   */\ntag_2:\n    /* \"#utility.yul\":912:915   */\n  0x00\n    /* \"#utility.yul\":934:1082   */\n  tag_15\n    /* \"#utility.yul\":1078:1081   */\n  dup3\n    /* \"#utility.yul\":934:1082   */\n  tag_7\n  jump\t// in\ntag_15:\n    /* \"#utility.yul\":927:1082   */\n  swap2\n  pop\n    /* \"#utility.yul\":1099:1102   */\n  dup2\n    /* \"#utility.yul\":1092:1102   */\n  swap1\n  pop\n    /* \"#utility.yul\":727:1108   */\n  swap2\n  swap1\n  pop\n  jump\t// out\n    /* \"contracts/Lesson-9.sol\":351:630  contract UnOptimise {... */\ntag_4:\n  dataSize(sub_0)\n  dup1\n  dataOffset(sub_0)\n  0x00\n  codecopy\n  0x00\n  return\nstop\n\nsub_0: assembly {\n        /* \"contracts/Lesson-9.sol\":351:630  contract UnOptimise {... */\n      mstore(0x40, 0x80)\n      callvalue\n      dup1\n      iszero\n      tag_1\n      jumpi\n      0x00\n      dup1\n      revert\n    tag_1:\n      pop\n      jumpi(tag_2, lt(calldatasize, 0x04))\n      shr(0xe0, calldataload(0x00))\n      dup1\n      0x09bd5a60\n      eq\n      tag_3\n      jumpi\n    tag_2:\n      0x00\n      dup1\n      revert\n        /* \"contracts/Lesson-9.sol\":540:627  bytes32 public hash = keccak256( // gas - 114995... */\n    tag_3:\n      tag_4\n      tag_5\n      jump\t// in\n    tag_4:\n      mload(0x40)\n      tag_6\n      swap2\n      swap1\n      tag_7\n      jump\t// in\n    tag_6:\n      mload(0x40)\n      dup1\n      swap2\n      sub\n      swap1\n      return\n    tag_5:\n      sload(0x00)\n      dup2\n      jump\t// out\n        /* \"#utility.yul\":7:84   */\n    tag_8:\n        /* \"#utility.yul\":44:51   */\n      0x00\n        /* \"#utility.yul\":73:78   */\n      dup2\n        /* \"#utility.yul\":62:78   */\n      swap1\n      pop\n        /* \"#utility.yul\":7:84   */\n      swap2\n      swap1\n      pop\n      jump\t// out\n        /* \"#utility.yul\":90:208   */\n    tag_9:\n        /* \"#utility.yul\":177:201   */\n      tag_13\n        /* \"#utility.yul\":195:200   */\n      dup2\n        /* \"#utility.yul\":177:201   */\n      tag_8\n      jump\t// in\n    tag_13:\n        /* \"#utility.yul\":172:175   */\n      dup3\n        /* \"#utility.yul\":165:202   */\n      mstore\n        /* \"#utility.yul\":90:208   */\n      pop\n      pop\n      jump\t// out\n        /* \"#utility.yul\":214:436   */\n    tag_7:\n        /* \"#utility.yul\":307:311   */\n      0x00\n        /* \"#utility.yul\":345:347   */\n      0x20\n        /* \"#utility.yul\":334:343   */\n      dup3\n        /* \"#utility.yul\":330:348   */\n      add\n        /* \"#utility.yul\":322:348   */\n      swap1\n      pop\n        /* \"#utility.yul\":358:429   */\n      tag_15\n        /* \"#utility.yul\":426:427   */\n      0x00\n        /* \"#utility.yul\":415:424   */\n      dup4\n        /* \"#utility.yul\":411:428   */\n      add\n        /* \"#utility.yul\":402:408   */\n      dup5\n        /* \"#utility.yul\":358:429   */\n      tag_9\n      jump\t// in\n    tag_15:\n        /* \"#utility.yul\":214:436   */\n      swap3\n      swap2\n      pop\n      pop\n      jump\t// out\n\n    auxdata: 0xa2646970667358221220f69c523e23eb66c6120fb903c4e0207e5abb38e3c10c7d765e8eb392d28eb6c264736f6c63430008180033\n}\n",
				"bytecode": {
					"linkReferences": {},
					"object": "608060405260405160200161001390610090565b604051602081830303815290604052805190602001205f55348015610036575f80fd5b506100a4565b5f81905092915050565b7f74657374000000000000000000000000000000000000000000000000000000005f82015250565b5f61007a60048361003c565b915061008582610046565b600482019050919050565b5f61009a8261006e565b9150819050919050565b60ac806100b05f395ff3fe6080604052348015600e575f80fd5b50600436106026575f3560e01c806309bd5a6014602a575b5f80fd5b60306044565b604051603b9190605f565b60405180910390f35b5f5481565b5f819050919050565b6059816049565b82525050565b5f60208201905060705f8301846052565b9291505056fea2646970667358221220f69c523e23eb66c6120fb903c4e0207e5abb38e3c10c7d765e8eb392d28eb6c264736f6c63430008180033",
					"opcodes": "PUSH1 0x80 PUSH1 0x40 MSTORE PUSH1 0x40 MLOAD PUSH1 0x20 ADD PUSH2 0x13 SWAP1 PUSH2 0x90 JUMP JUMPDEST PUSH1 0x40 MLOAD PUSH1 0x20 DUP2 DUP4 SUB SUB DUP2 MSTORE SWAP1 PUSH1 0x40 MSTORE DUP1 MLOAD SWAP1 PUSH1 0x20 ADD KECCAK256 PUSH0 SSTORE CALLVALUE DUP1 ISZERO PUSH2 0x36 JUMPI PUSH0 DUP1 REVERT JUMPDEST POP PUSH2 0xA4 JUMP JUMPDEST PUSH0 DUP2 SWAP1 POP SWAP3 SWAP2 POP POP JUMP JUMPDEST PUSH32 0x7465737400000000000000000000000000000000000000000000000000000000 PUSH0 DUP3 ADD MSTORE POP JUMP JUMPDEST PUSH0 PUSH2 0x7A PUSH1 0x4 DUP4 PUSH2 0x3C JUMP JUMPDEST SWAP2 POP PUSH2 0x85 DUP3 PUSH2 0x46 JUMP JUMPDEST PUSH1 0x4 DUP3 ADD SWAP1 POP SWAP2 SWAP1 POP JUMP JUMPDEST PUSH0 PUSH2 0x9A DUP3 PUSH2 0x6E JUMP JUMPDEST SWAP2 POP DUP2 SWAP1 POP SWAP2 SWAP1 POP JUMP JUMPDEST PUSH1 0xAC DUP1 PUSH2 0xB0 PUSH0 CODECOPY PUSH0 RETURN INVALID PUSH1 0x80 PUSH1 0x40 MSTORE CALLVALUE DUP1 ISZERO PUSH1 0xE JUMPI PUSH0 DUP1 REVERT JUMPDEST POP PUSH1 0x4 CALLDATASIZE LT PUSH1 0x26 JUMPI PUSH0 CALLDATALOAD PUSH1 0xE0 SHR DUP1 PUSH4 0x9BD5A60 EQ PUSH1 0x2A JUMPI JUMPDEST PUSH0 DUP1 REVERT JUMPDEST PUSH1 0x30 PUSH1 0x44 JUMP JUMPDEST PUSH1 0x40 MLOAD PUSH1 0x3B SWAP2 SWAP1 PUSH1 0x5F JUMP JUMPDEST PUSH1 0x40 MLOAD DUP1 SWAP2 SUB SWAP1 RETURN JUMPDEST PUSH0 SLOAD DUP2 JUMP JUMPDEST PUSH0 DUP2 SWAP1 POP SWAP2 SWAP1 POP JUMP JUMPDEST PUSH1 0x59 DUP2 PUSH1 0x49 JUMP JUMPDEST DUP3 MSTORE POP POP JUMP JUMPDEST PUSH0 PUSH1 0x20 DUP3 ADD SWAP1 POP PUSH1 0x70 PUSH0 DUP4 ADD DUP5 PUSH1 0x52 JUMP JUMPDEST SWAP3 SWAP2 POP POP JUMP INVALID LOG2 PUSH5 0x6970667358 0x22 SLT KECCAK256 0xF6 SWAP13 MSTORE RETURNDATACOPY 0x23 0xEB PUSH7 0xC6120FB903C4E0 KECCAK256 PUSH31 0x5ABB38E3C10C7D765E8EB392D28EB6C264736F6C6343000818003300000000 "
				},
				"gasEstimates": {
					"creation": {
						"codeDepositCost": "34400",
						"executionCost": "22497",
						"totalCost": "56897"
					},
					"external": {
						"hash()": "2402"
					}
				},
				"methodIdentifiers": {
					"hash()": "09bd5a60"
				}
			},
			"storageLayout": {
				"storage": [
					{
						"astId": 13,
						"contract": "contracts/Lesson-9.sol:UnOptimise",
						"label": "hash",
						"offset": 0,
						"slot": "0",
						"type": "t_bytes32"
					}
				],
				"types": {
					"t_bytes32": {
						"encoding": "inplace",
						"label": "bytes32",
						"numberOfBytes": "32"
					}
				}
			},
			"userdoc": {
				"kind": "user",
				"methods": {},
				"version": 1
			}
		}
	}
}